:100000000C9435000C945D000C945D000C945D0024
:100010000C945D000C945D000C945D000C945D00EC
:100020000C945D000C945D000C945D000C945D00DC
:100030000C945D000C945D000C945D000C945D00CC
:100040000C94C4010C945D000C9434020C940E02C8
:100050000C945D000C945D000C945D000C945D00AC
:100060000C945D000C945D00F50211241FBECFEFCF
:10007000D8E0DEBFCDBF11E0A0E0B1E0E2EAF6E0FB
:1000800002C005900D92A631B107D9F721E0A6E193
:10009000B1E001C01D92A03CB207E1F710E0C5E35A
:1000A000D0E004C02197FE010E944403C433D1076D
:1000B000C9F70E9466020C944F030C940000FC01E7
:1000C000538D448D252F30E0842F90E0821B930BBD
:1000D000541710F0CF96089501970895FC01918D63
:1000E000828D981761F0828DDF01A80FB11D5D969A
:1000F0008C91928D9F5F9F73928F90E008958FEF08
:100100009FEF0895FC01918D828D981731F0828DBB
:10011000E80FF11D858D90E008958FEF9FEF089512
:10012000FC01918D228D892F90E0805C9F4F821B76
:1001300091098F7399270895FC01848DDF01A80F21
:10014000B11DA35ABF4F2C91848D90E001968F73FF
:100150009927848FA689B7892C93A089B1898C911E
:10016000837080648C93938D848D981306C002886D
:10017000F389E02D80818F7D80830895EF92FF9237
:100180000F931F93CF93DF93EC0181E0888F9B8DBA
:100190008C8D981305C0E889F989808185FD26C07A
:1001A000F62E0B8D10E00F5F1F4F0F731127E02EFF
:1001B0008C8DE8120CC00FB607FCFACFE889F989DC
:1001C000808185FFF5CFCE010E949C00F1CF8B8D01
:1001D000FE01E80FF11DE35AFF4FF0829FB7F8943C
:1001E0000B8FEA89FB89808180620AC09FB7F894EF
:1001F000EE89FF896083E889F98980818370806452
:1002000080839FBF81E090E0DF91CF911F910F919C
:10021000FF90EF900895CF93DF93EC01888D8823B2
:10022000C9F0EA89FB89808185FD05C0A889B98963
:100230008C9186FD0FC00FB607FCF5CF808185FF3E
:10024000F2CFA889B9898C9185FFEDCFCE010E94AC
:100250009C00E7CFDF91CF91089583E291E00E9467
:10026000900021E0892B09F420E0822F089580E09E
:1002700090E0892B29F00E942D0181110C9400003F
:100280000895CF92DF92EF92FF920F931F93CF9337
:10029000DF936C017A018B01C0E0D0E0CE15DF0561
:1002A00081F0D8016D918D01D601ED91FC91019005
:1002B000F081E02DC6010995892B11F02196EECF32
:1002C0007E01C701DF91CF911F910F91FF90EF90B9
:1002D000DF90CF900895089580E090E00895009712
:1002E00069F0FC0101900020E9F73197AF01481B4C
:1002F000590BBC0183E291E00C94410180E090E055
:1003000008958F929F92AF92BF920F931F93CF93B6
:10031000DF93CDB7DEB7A1970FB6F894DEBF0FBE5F
:10032000CDBF19A2423008F44AE08E010F5D1F4F85
:10033000842E912CA12CB12CA50194010E942203A2
:10034000E62FB901CA0101501109EA3014F4E05D49
:1003500001C0E95CD801EC93232B242B252B61F7FA
:10036000C8010E946F01A1960FB6F894DEBF0FBEC0
:10037000CDBFDF91CF911F910F91BF90AF909F9014
:100380008F9008950E944A031F920F920FB60F920A
:1003900011242F933F938F939F93AF93BF9380919B
:1003A0001F0190912001A0912101B0912201309173
:1003B0001E0123E0230F2D3720F40196A11DB11D4E
:1003C00005C026E8230F0296A11DB11D20931E0132
:1003D00080931F0190932001A0932101B0932201EB
:1003E00080911A0190911B01A0911C01B0911D01F7
:1003F0000196A11DB11D80931A0190931B01A0933A
:100400001C01B0931D01BF91AF919F918F913F91BE
:100410002F910F900FBE0F901F9018951F920F9263
:100420000FB60F9211242F933F934F935F936F93C7
:100430007F938F939F93AF93BF93EF93FF9383E249
:1004400091E00E949C00FF91EF91BF91AF919F912D
:100450008F917F916F915F914F913F912F910F906D
:100460000FBE0F901F9018951F920F920FB60F920C
:1004700011242F938F939F93EF93FF93E091330178
:10048000F09134018081E0913901F0913A0182FDCF
:1004900012C0908180913C018F5F8F7320913D014C
:1004A000821751F0E0913C01F0E0ED5DFE4F958F39
:1004B00080933C0101C08081FF91EF919F918F91CA
:1004C0002F910F900FBE0F901F901895789484B5C0
:1004D000826084BD84B5816084BD85B5826085BD40
:1004E00085B5816085BD80916E00816080936E00CE
:1004F00010928100809181008260809381008091C0
:100500008100816080938100809180008160809370
:1005100080008091B10084608093B1008091B00030
:1005200081608093B00080917A00846080937A002B
:1005300080917A00826080937A0080917A00816055
:1005400080937A0080917A00806880937A0010927C
:10055000C100C6E1D1E04E010D2E000CAA08BB0877
:10056000442455243201481859086A087B08D0935E
:100570001901C0931801B7FE09C06DE283E291E052
:100580000E94BE004AE0C301B20103C04AE0C501B7
:10059000B4010E94810182E191E00E946F01E0912B
:1005A0001801F0911901C080D1800D2C000CEE08CB
:1005B000FF08F7FE0EC06DE283E291E00E94BE00EC
:1005C00066277727CB016C197D098E099F094AE0C0
:1005D00003C04AE0C701B6010E94810182E191E0B7
:1005E0000E946F010E943701C2CFE3E2F1E0138263
:1005F000128288EE93E0A0E0B0E084839583A68326
:10060000B78384E091E09183808385EC90E09587C7
:10061000848784EC90E09787868780EC90E0918BCC
:10062000808B81EC90E0938B828B82EC90E0958BB9
:10063000848B86EC90E0978B868B118E128E138EB6
:10064000148E0895A1E21A2EAA1BBB1BFD010DC03A
:10065000AA1FBB1FEE1FFF1FA217B307E407F50772
:1006600020F0A21BB30BE40BF50B661F771F881F4E
:10067000991F1A9469F760957095809590959B01E4
:10068000AC01BD01CF010895EE0FFF1F0590F4915D
:10069000E02D099481E090E0F8940C944F03F894D5
:0206A000FFCF8A
:1006A20000000000BE0041015F000B0190006E00DF
:0606B20082000D0A0000A9
:00000001FF
